:020000040800F2
:10000000D00B0020D5000008B51A0008AB18000876
:1000100000000000000000000000000000000000E0
:10002000000000000000000000000000B91A0008F5
:100030000000000000000000B71A0008BB1A00080A
:10004000E700000800000000E7000008E7000008E3
:10005000E7000008E7000008E7000008E7000008E4
:100060000000000009020008E7000008E70000089F
:10007000E7000008E7000008E700000800000000B3
:100080003D1B00080000000000000000E700000821
:1000900000000000E7000008E7000008E700000893
:1000A000E7000008E7000008E7000008E700000894
:1000B0009121000800000000000000000000000086
:1000C0000348854600F06CF8004800476D2A000898
:1000D000D00B00200448804704480047FEE7FEE7B5
:1000E000FEE7FEE7FEE7FEE72D1B0008C100000863
:1000F00030B50B46014600202022012409E00D46C0
:10010000D5409D4205D31D469540491B2546954047
:1001100040191546521E002DF1DC30BDD2B201E06F
:100120000270401C491EFBD270470022F6E710B552
:1001300013460A4604461946FFF7F0FF204610BD55
:10014000F0B51FB40646002082B005464024019158
:1001500000901BE0019922460F46304600F042F81D
:10016000049A059B801A994110D3104619462246DD
:1001700000F028F8361A8F4101972246012000210D
:10018000009F00F01FF838184D4100902046641E73
:100190000028DFDC019B00982946324607B0F0BDFD
:1001A000064C0125064E05E0E36807CC2B430C3CCA
:1001B00098471034B442F7D3FFF786FFF82C0008B5
:1001C000182D000810B5202A04DB0146203A914082
:1001D000002010BD914020239C1A0346E3401943A0
:1001E000904010BD10B5202A04DB0846203AD040CC
:1001F000002110BD0B46D340D0402024A21A9140CC
:100200000843194610BD000010B5024800F028F957
:1002100010BD00006001002010B5044600781421D4
:100220000838FFF765FF216C064A8908890089189C
:10023000616404498031A1641C210840012181408E
:10024000E16410BD000802400179074B8A00D21812
:100250000265054A4432491E42658A07920F012110
:100260009140816570470000FC080240F0B5846C45
:10027000C56C6560046D002C02D0446D856D6560B1
:100280000B4C6568066C1C273E400127B7403D4378
:100290006560046863608368102B036803D099600D
:1002A0000068C260F0BD9A600068C160F0BD0000E7
:1002B0000000024010B532220549064801F024FA38
:1002C00004480068016810221143016010BD00005D
:1002D00004020020D400002070B505242407012268
:1002E0000221204600F068FA7D20C00000F0ACF941
:1002F00000220221204600F05FFA7D252D012846CC
:1003000000F0A2F901220221204600F055FA284609
:1003100000F09AF9284600F097F9284600F094F981
:1003200070BD000010B50D4C2068C169C943C906F5
:1003300013D410210162204601F042F8A06F00683A
:1003400040686421091A0648642241800121017035
:1003500001460831204601F0D7F910BDD400002035
:10036000FC01002070470000F0B5002808D00146CD
:1003700020314A79022A05D00422C2630020087184
:100380000120F0BD026813680E24A3431360426C81
:100390001468FF2301339C431460026814686408E6
:1003A000640014600C4A5568066C1C242640012425
:1003B0002746B7403D435560826CC56C5560026D61
:1003C000002A05D015689D431560826D406D42601E
:1003D0004C7100200871F0BD00000240F8B50146E4
:1003E0000024203101220A714B79022B03D0042111
:1003F000C16301242DE003681D680E26B5431D600E
:1004000003681D686D086D001D60436C1D68FF2644
:100410000136B5431D60104B5D68066C1C273E40DD
:100420001746B7403D435D60836CC56C5D60036DEE
:10043000002B07D01E68FF250135AE431E60436DBB
:10044000856D5D604A7100220A71816B002900D0C0
:1004500088472046F8BD000000000240C06B70478E
:10046000F0B42C490C6802681368056C1C273D40E9
:100470000426AE40264211D05E070FD513689B06B6
:1004800003D4146804239C4314604B68046C042256
:100490003C40A24013434B60016B1CE00227AF407D
:1004A000064627402036002F19D09F0717D513681E
:1004B0009B0605D413680A24A343136001227271BA
:1004C0004B68046C1C2214400222A24013434B6070
:1004D00000213171C16A00291AD0F0BC08470827F1
:1004E000AF40274214D01B0712D513680E24A34334
:1004F00013604B68046C1C22144001221546A54071
:100500002B434B60C263727100213171416BE2E792
:10051000F0BC70470000024070B504003DD0244894
:10052000256814212818FFF7E3FD800020640220CD
:1005300026462036707128681E4908402860E16808
:10054000A06862690843216911430843A16908430F
:10055000E1690843216A084321680A68104308607A
:100560002046FFF759FE0121A06889030025884233
:1005700000D16560616C20790860A06CE16C41601D
:100580006068401E03280AD82046FFF75DFE206DF4
:100590000560606DA16D416004E0012070BD2565BE
:1005A0006565A565E563012070713571002070BD3A
:1005B000F8FFFDBF0F80FFFFF8B505460446203564
:1005C000287900278C4601280AD0012028716879F3
:1005D0000026012806D02E7102272E713846F8BD5C
:1005E0000220F8BD02206871E663206801684908AE
:1005F0004900016061462046FFF738FE206B002865
:100600002068016801D00E2205E0042291430160B8
:10061000206801680A2211430160606C0168CA0306
:10062000084902D502680A430260206D002802D002
:1006300002680A43026020680168012211430160D8
:10064000CBE700000001000070B5044600F0BAF8E6
:100650000546601C02D004484068241800F0B2F837
:10066000401BA042FAD370BD04000020F0B5002367
:1006700088E001229A409446144022007ED04C68C3
:10068000022C01D0122C0CD1DC08A40027183C6AE3
:100690005D07ED0E0F26AE40B4430E69AE40264313
:1006A0003E6205685E000324B4400F79A543BF078E
:1006B000BF0FB7402F4307604D68012D05D0022DB5
:1006C00003D0112D01D0122D0ED18568CF68A5431E
:1006D000B7402F43876047686546AF430D79ED0605
:1006E000ED0F9D403D434560C568A5438C68B4400F
:1006F0002C43C4604C68E40043D59D08244CAD00F5
:100700002F193C6E9D07EE0E0F25B540AC43052515
:100710002D07A84201D100250FE01E4DA84201D1AE
:1007200001250AE01C4DA84201D1022505E01B4D20
:10073000A84201D1032500E00525B5402543144C0E
:100740003D66134D80352E684F689643FF0300D5F4
:1007500016432E606E684F689643BF0300D516435C
:100760006E6025684E689543F60200D515432560F6
:1007700065684E689543B60202D500E001E0154376
:1007800065605B1C0A681446DA4000D071E7F0BD72
:10079000001802400004005000080050000C0050F7
:1007A0000069084000D00120704742690A4201D028
:1007B0008162704781617047002A01D08161704772
:1007C0008162704701488068704700000400002083
:1007D00002488168426889188160704704000020DF
:1007E00010B50848002401688215114301602046B5
:1007F00000F00AF8002801D0012401E000F040F8E0
:10080000204610BD0020024000B5014687B00022FE
:10081000102000F057F8102000F048F81348C26B81
:1008200002210A43C263C06B0840059004A96846D0
:1008300000F0C4F900F0DEF90D49FFF759FC0E494C
:100840000C4A0A600D4A401ECA60486000200861D8
:100850008860084600F01BFC002802D0012007B089
:1008600000BD054800F02EFCF9E700000010024032
:1008700040420F0000040040BC010020E7030000DC
:1008800008B5094801680122114301600068104061
:10089000009005484038C26B01040A43C263C06B34
:1008A0000840009008BD000040100240002805DB11
:1008B000C106C90E01208840014908607047000048
:1008C00000E100E010B501F08BFC10BD10B50F4C3D
:1008D000216803225202914301432160C11FFF3965
:1008E000FA390ED10A480621006848430949FFF742
:1008F000FFFB401C02E0002805D0401E616949054D
:10090000F9D4002010BD032010BD0000007000408D
:100910001000002040420F00F8B504460068002691
:100920004D4D800358D54C4800274038C06BC0005F
:1009300009D449484038C26B01040A43C263C06B02
:100940000840012700904548016882151143016065
:10095000FFF738FF009005E0FFF734FF0099401AD9
:10096000022825D83D480068C005F5D5E86903216F
:10097000090208400FD0616981420CD0E869032167
:100980000902EA698843012109040A43EA61EA6924
:100990008A43EA61E861C0070FD0FFF713FF0090B8
:1009A00008E0FFF70FFF0099411A2D48814201D955
:1009B000032609E0E8698007F3D5E8690321090205
:1009C000884361690843E861002F05D02248403818
:1009D000C26B01048A43C2632078C00705D06869EE
:1009E000616880088000084368612078400606D569
:1009F0006869032109038843A16808436861208866
:100A0000400411D568692169800080080843686145
:100A1000012120698907884206D10F484038C16802
:100A2000012212041143C1602088000512D56869B3
:100A3000032189038843E168084368610121E06874
:100A40008903884206D104484038C1680122120453
:100A50001143C1603046F8BD4010024000700040B4
:100A600088130000F8B50F46060043D04D4D2868A6
:100A70004007400FB84213D22868C008C00038436E
:100A80002860FFF79FFE044605E0FFF79BFE011B71
:100A90004548814261D828684007400FB842F4D1E8
:100AA0003068424C81070DD5400704D5A068072166
:100AB00009030843A060A0680F2109028843B168B8
:100AC0000843A0603078C00732D0706801280AD08F
:100AD00002280BD000280FD03449403103280ED013
:100AE000C969890704E02168890301E02168890157
:100AF000002906DB0120F8BD21684905F8E7096AED
:100B0000EFE7A168C908C9000143A160FFF75AFED9
:100B1000009006E0FFF756FE0099411A22488142F4
:100B20001BD8A068382108407168C9008842F1D1FB
:100B300028684007400FB84217D91A480168C90809
:100B4000C90039430160FFF73DFE054607E0FFF7A6
:100B500039FE411B1448814201D90320F8BD1148D8
:100B600000684007400FB842F1D13078400706D501
:100B7000A068072109038843F1680843A06000F0DA
:100B80004DF8A1683C2289091140094A515CC90607
:100B9000C90EC8400749086007480068FFF734FEDF
:100BA000F8BD000000200240881300000010024041
:100BB000982C0008100000200400002010B5072227
:100BC00002600A4A93685B075B0F436093680F24D7
:100BD000240223408360926807231B031A40C260EB
:100BE000034800684007400F086010BD0010024035
:100BF000002002400648074900688968064A4904FF
:100C0000490F8900515CC906C90EC84070470000F1
:100C10001000002000100240D82C000810B5204C15
:100C2000A068204A8006400F16D0A0688006410FB9
:100C3000501001290FD0A1688906490F022912D04E
:100C4000A0688006400F042823D0A0688006400FCB
:100C5000032821D0002010BD206801218004400F0E
:100C60008140104612E0E1688B07E1689B0F49065E
:100C7000490F491C032B00D01046FFF739FAE168F1
:100C80004904490E4843E168490F491CFFF730FA0F
:100C900010BD0120C00310BD7D20000210BD00006A
:100CA000001002400024F400F8B504007ED0207843
:100CB0003827C007EB4D002846D0A868E9683840BF
:100CC0008907890F102802D008280BD001E00329DA
:100CD00008D001206268000482420AD129680143D9
:100CE000296015E0286880032ED560680028DDD0D3
:100CF0002AE0052301211B0489049A422A6802D1B3
:100D00000A432A60EAE782432A6028688843286009
:100D1000606800280CD0FFF755FD064604E0FFF799
:100D200051FD801B642873D828688003F7D50BE039
:100D3000FFF748FD064604E0FFF744FD801B6428EA
:100D4000F1D828688003F7D42078800769D5A8688F
:100D5000E96838408A070721920FC902102802D09B
:100D6000002813D001E0022A10D0E068002846D005
:100D7000286888432169084328602868FF210131D9
:100D800008432860FFF71EFD06462CE02A6852053E
:100D900002D5E268002A89D06A687F231B029A4341
:100DA00063691B021A436A60002800E08DE00ED1DF
:100DB0002868884321690843286028680121800445
:100DC000400F8140A848FFF793F9A8490860A84858
:100DD0000068FFF719FD002877D122E0FFF7F2FC49
:100DE000801B02289FD828684005F7D568687F21B6
:100DF00009028843616909020843686011E02968B3
:100E0000FF20013081432960FFF7DCFC064605E046
:100E100098E0FFF7D7FC801B022884D8286840059B
:100E2000F7D42078934E00072ED5A8688006400F8F
:100E300003280AD0A0690028306A16D0012108438F
:100E40003062FFF7BFFC07460BE0306A80071BD516
:100E5000A06900289FD017E0FFF7B4FCC01B022850
:100E600070D8306A8007F7D50EE040084000306245
:100E7000FFF7A8FC074604E0FFF7A4FCC01B02280C
:100E800060D8306A8007F7D4207840076CD5A8680E
:100E900000278006400F042818D0E86BC00008D453
:100EA000E96B012000070143E963E96B0140012779
:100EB000009171480168C90519D401688215114370
:100EC0000160FFF77FFC00900DE083E0F069800790
:100ED0004AD5A06800287DD046E0FFF773FC009952
:100EE000401A02282ED864480068C005F5D5A168CC
:100EF000012910D004200529F16911D049084900C1
:100F0000F161F1698143F161A068002816D0FFF713
:100F100059FC00900EE0F06901210843F061F3E70D
:100F20000143F161F7E7FFF74DFC0099411A53487F
:100F300081426DD8F0698007F5D50EE0FFF742FCDD
:100F4000009007E064E0FFF73DFC0099411A4B4830
:100F500081425DD8F0698007F5D4002F04D0E96B99
:100F6000012000078143E963E069002877D0A96880
:100F70008906490F022951D0012636060228286821
:100F80000DD0B0432860E86880088000E860E86819
:100F90003B490840E860FFF715FC04463AE0B043DF
:100FA0002860FFF70FFC074604E0FFF70BFCC01BAF
:100FB00002282DD828688001F7D4616A206AA26AC5
:100FC0000843E16A120211430843216B0843E968B0
:100FD0002C4A00E041E011400843E86028683043B3
:100FE0002860E868012109070843E860FFF7EAFB89
:100FF000044604E0FFF7E6FB001B022808D8286837
:101000008001F7D52BE0FFF7DDFB001B022801D99B
:101010000320F8BD28688001F5D420E00128F8D02D
:10102000E868226A8107890F914216D17021626AAD
:101030000140914211D17F21A26A090201401202AE
:1010400091420AD11F214904E26A0140914204D130
:10105000400F216B4007884201D00120F8BD0020DD
:10106000F8BD0000001002400024F4001000002031
:10107000040000204010024000700040881300006F
:10108000FFFFFEEF8C80C11F70477047704770B53F
:10109000040005D025462035687F002802D006E0F0
:1010A000012070BD00202877204600F00AF80220B9
:1010B0006877211D206800F049FD01206877002035
:1010C00070BD70470168CB6801221343CB60006894
:1010D0008168064B1940062905D01304994202D0B5
:1010E0000168114301600020704700000700010003
:1010F0007047000070B50446006801690025C943C7
:101100008907002915DBC168C943890711D4E91E85
:10111000016101202077206880698007204602D085
:10112000FFF7E6FF04E000F0A7F8204600F0A5F87E
:10113000257720680169C943490717D4C168C943A5
:10114000490713D40421C943016102202077206894
:1011500080698005800F204602D0FFF7C9FF04E0B8
:1011600000F08AF8204600F088F8257720680169A9
:10117000C943090716D4C168C943090712D4082115
:10118000C9430161042020772068C0698007204698
:1011900002D0FFF7ADFF04E000F06EF8204600F04B
:1011A0006CF8257720680169C943C90617D4C1685E
:1011B000C943C90613D41021C9430161082020770F
:1011C0002068C0698005800F204602D0FFF790FF9D
:1011D00004E000F051F8204600F04FF82577206831
:1011E0000169C943C90708D1C168C943C90704D106
:1011F000891E0161204600F041F820680169C94359
:10120000090609D4C168C943090605D48021C94328
:1012100001612046FFF739FF20680169C943C9050C
:1012200008D4C168C943090604D4124901612046A3
:10123000FFF72AFF20680169C943490609D4C1683C
:10124000C943490605D44021C9430161204600F045
:1012500045F820680169C943890609D4C168C943B2
:10126000890605D42021C94301612046FFF70EFFFE
:1012700070BD0000FFFEFFFF7047704770B500684B
:101280001049884201D1FFF7A3FA0F4D0F482A7881
:101290000F4B02240021012A05D10268521C026072
:1012A0009A4201D92C7001600A4D2878012807D193
:1012B00009480268521C02609A4201D901602C70F0
:1012C00070BD000000040040140000200000002059
:1012D00010270000150000201C000020704730B5CA
:1012E000014660310A7F012A18D001220A7724239F
:1012F000024680321446136003681A681D686D0840
:101300006D001D6001235B079A430023436600685C
:101310000260202020600B77184630BD022030BDCF
:101320007047F8B5054604466035287F01281DD072
:10133000012028772422204680300746026020685A
:10134000066802685208520002602068826807231B
:101350005B069A430A438260204600F033FC206813
:1013600006602020386000202877F8BD0220F8BDF4
:10137000F8B5054604466035287F01281CD00120B9
:1013800028772422204680300746026020680668BD
:10139000026852085200026020688268D200D208B7
:1013A0000A438260204600F00DFC20680660202081
:1013B000386000202877F8BD0220F8BD70477047DC
:1013C000F8B505468035296804466E68006882686D
:1013D00010271206002A14DA212912D181688022EE
:1013E00091438160606F002808D0FEF7BDFF0028A0
:1013F00004D0606FFFF732F820281DD0204600F09F
:1014000013FD20688168490614D5222E12D1816807
:10141000402291438160A06F002808D0FEF7A4FF0E
:10142000002804D0A06FFFF719F8202804D0204628
:1014300000F0E6FC0020F8BDAF600320F8BD704767
:10144000F8B503680446DA691868996816072546EE
:10145000360F8035002E60D0584EFF2721370E40C2
:101460000740374372D0D70706D0C70504D50127F8
:101470001F62AB683B43AB60930708D5CB0706D030
:10148000276802233B62AB6804273B43AB605307EA
:1014900008D5CB0706D0276804233B62AB68022738
:1014A0003B43AB60130709D520230340334305D0EA
:1014B000266808233362AE681E43AE60AB68002B1B
:1014C00038D092060AD520221040D2051140084398
:1014D00004D0E16E002901D020468847A868216821
:1014E0008968490601D4000729D5204600F088FC08
:1014F0002068816849061ED5826840218A4382603F
:10150000A06F002817D02E498163A06FFEF766FFF9
:1015100000280FD0A06F816B0BE0960616D501272F
:1015200020263F0706400F403E430FD0E16E22E0E9
:1015300020468847F8BD2046FFF781FFF8BD2046CA
:10154000FFF77DFF0020A860F8BDFFE7D60208D5B1
:101550004E0206D50120000518622046FFF72FFF36
:10156000F2E716060AD501278026FF050640394016
:101570000E4303D0216F0029DAD1E5E751060DD5DE
:1015800041060BD51A68204640218A431A60202163
:1015900029600021216700F087F9D5E7110205D500
:1015A000410003D52046FFF709FFCDE7D101CBD598
:1015B0000028C9DA2046FFF7B3FEC5E70100001096
:1015C000551D000870B5040006D020468030054641
:1015D0000068002802D007E0012070BD00217C20B7
:1015E0000155204600F026F8242028602068016874
:1015F000490849000160204600F026FC0128ECD093
:10160000A06A002802D0204600F00CFB2068416848
:101610000922D20291434160206881682A229143C5
:10162000816020680168012211430160204600F0BA
:101630005FFB70BD70B586B0064614216846FEF7A4
:1016400074FD2B4B326800242A4902209A421AD199
:10165000284A4032156843031D43156012681A403A
:1016600005924A6B02434A63496B01900140059120
:10167000C021009102940394049469461E48FEF729
:10168000F5FF06B070BD1D4B9A42FAD1CB6B01221B
:1016900052041343CB63CB6B134005934B6B012276
:1016A00013434B63496B0190114005910C2100914C
:1016B000052002940394049269460007FEF7D6FFC2
:1016C000104D0F482860AC603420EC6068606C619D
:1016D000AC61EC6180202C6228612846FEF71CFF7B
:1016E000002801D0FEF73EFEB567AE62C9E70000F4
:1016F0000038014000100240000400500044004047
:101700000800024060010020F8B505460446803517
:10171000686820284ED100290BD0002A09D0012367
:10172000A0681B03984206D12069002803D1C8078E
:1017300001D00120F8BD26466036307F012839D01F
:10174000012030775C20A16502530027AF60222082
:101750006860A06F00281AD01749C162A16F1748AE
:101760000863A16F16484863A06F13468763A06D96
:101770002168844662462431A06FFEF71DFF0028D1
:1017800005D01020A860377720202860D1E7377770
:1017900020680168FF2201321143016020688168DE
:1017A00001221143816020688168402211438160D9
:1017B0000020F8BD0220F8BDB71D0008F71D000885
:1017C000691D000870477047FFB50746044680371B
:1017D000386885B00D46202864D1002D0CD00798BC
:1017E000002809D00120A1680003814207D12069A7
:1017F000002804D1E80702D0012009B0F0BD20463E
:1018000060300290007F01284CD0029801210177BE
:101810000020B86021203860FEF7D4FF01902646F2
:1018200040360798B0820798F0820120A168000333
:10183000814202D12069002802D00395002515E0DD
:101840000020039012E000228021204600F06CFC72
:10185000002818D10398002817D0216800788862E2
:101860000398401C0390F08A401EF082F08A019B8E
:10187000002808980090E6D100224021204600F080
:1018800053FC002808D00320B7E728882168C0054A
:10189000C00D8862AD1CE6E7202038600299002068
:1018A0000877AAE70220A8E77047FEE7F8B50446E4
:1018B000012221492148FEF77FFF0126204FB60370
:1018C000002231463846FEF777FF0520FEF7BCFEC2
:1018D000E007C00F002500280FD00122314638460E
:1018E000FEF76AFF4B20C00000F0E6FE0022314602
:1018F0003846FEF761FFC8200EE001223146384627
:10190000FEF75AFFC82000F0D7FE002231463846C5
:10191000FEF752FF4B20C00000F0CEFE6408E00747
:101920006D1CC00FEDB2082DD5D3012231463846CB
:10193000FEF742FFF8BD0000014000000004005027
:101940000008005008B50448816B012211438163EF
:10195000806B1040009008BD00100240F0B587B0C9
:1019600014216846FEF7E1FB2748426B02210A4337
:101970004263426B0A400592426B04210A43426370
:10198000426B0A400592416B012529434163406B3C
:101990001E4E2840AC0305902A4621463046FEF7ED
:1019A0000BFF05273F07012213213846FEF704FFEE
:1019B000FF21012281313846FEF7FEFE009400240B
:1019C00001950294694630460394FEF74FFEE80302
:1019D00000900194694602943046FEF747FEFF20CE
:1019E0009430009002946946019503943846FEF7BE
:1019F0003DFE402000900194694602943846FEF76F
:101A000035FE07B0F0BD0000001002400008005095
:101A100010B5184816490160E12109034160002111
:101A20008160C16001618161C16101620C2241621A
:101A300042618162FFF7C6FD002801D0FEF792FCEB
:101A400000210C48FFF794FC002801D0FEF78AFC27
:101A500000210848FFF765FC002801D0FEF782FC52
:101A60000448FFF73CFC002801D0FEF77BFC10BDCA
:101A7000003801404800002010B50C480A490160B8
:101A80000B49416000218160C16001618161C161D8
:101A900001620C22416242618162FFF793FD0028DE
:101AA00001D0FEF75FFC10BD00440040D4000020D0
:101AB00000590600704770477047704730B597B0BF
:101AC00034216846FEF731FB00240D940E940F94E8
:101AD000182111A81094FEF728FB01204002FEF700
:101AE000F5FE0225E80103900095402005900820AE
:101AF0000A9080030B900795000304940C900895BE
:101B000009946846FFF7D0F807200D900F94022142
:101B10000E9510940DA8FEF7A5FF012011901294C8
:101B200011A8FEF7F9FE17B030BD000001200249F0
:101B3000C00688607047000000ED00E010B5024864
:101B4000FFF7D8FA10BD0000BC01002070B5026894
:101B5000174B184E984201D0B04203D17024A243D3
:101B60004C682243144C154D984208D0B04206D020
:101B7000134EB04203D0A04201D0A84204D10326A4
:101B80003602B243CE6832438026B2434E693243B6
:101B900002608A68C2620A688262984203D0A042E8
:101BA00001D0A84201D1096901630121416170BDE1
:101BB000002C014000040040004401400048014066
:101BC00000200040F0B513A106C985B00192009134
:101BD00012A206CA039202910446416E40340029C3
:101BE00015D000688168806809014D0F400F02AE72
:101BF000315C6F46385CC000FEF77AFA6085785D2C
:101C0000715DC000FEF774FA208505B0F0BD0120BB
:101C10006085F9E7010101030701000008040204DF
:101C20000801010110B5018DC90707D001684A6894
:101C300001235B049A43C36A1A434A60018D8907F2
:101C400007D501684A6801231B049A43036B1A43B2
:101C50004A60018D490707D501684A6801239B0442
:101C60009A43436B1A434A60018D090707D50168FF
:101C70004A680123DB039A43836B1A434A60018D50
:101C8000C90607D50268916801231B039943C36BFA
:101C900019439160018D890607D501688A6801237F
:101CA0005B039A43036C1A438A60018D490612D57F
:101CB00003685A6801210905446C8A4322435A602B
:101CC000426C8A4207D10268516803235B0599433D
:101CD000836C19435160018D090607D501684A6874
:101CE0000123DB04C06C9A4302434A6010BD00002C
:101CF000FEB50546002680350446AE60FEF762FD5F
:101D0000019020680068124F000709D50121009753
:101D1000002249052046019B00F006FA00280DD15B
:101D20002068006840070BD5012100970022890533
:101D30002046019B00F0F8F9002801D00320FEBDE9
:101D4000202028606860603426770020FEBD0000F7
:101D5000FFFFFF0110B5806A002201464031CA83AF
:101D6000CA82FFF76CFB10BDF8B5846A204680304C
:101D7000016805464668206880680027000600283C
:101D800006DA212904D156200753204600F04CF8EA
:101D900020688068400606D5222E04D15E200753B5
:101DA000204600F02DF8A86810210843A8602046BE
:101DB000FFF745FBF8BD10B501460968806A096860
:101DC000890615D400225E210A5201680A68FF23A1
:101DD00001339A430A6001688A68520852008A6097
:101DE00001688A6840239A438A60202284210A502D
:101DF000FFF7E8FC10BD10B5806AFFF7E4FC10BDEA
:101E000001680A68FF2321339A430A6001688A68DF
:101E1000044B1A408A60202284210A500021C166A6
:101E200070470000FEFFFFEF01680A68C0239A4375
:101E30000A6001688A680123DB059A438A602021D1
:101E40008030016070470000F8B504468068216961
:101E5000E26908436169002611430843616E226804
:101E600001431068A94B1840084310602168486876
:101E7000032212039043E26810434860A169206A7C
:101E8000226808439168A24B194001439160206881
:101E9000C16A626A090909011143C1629D4920684A
:101EA00088420FD19C4840698007800F10D00128DC
:101EB00004D002280CD0032809D101E0042007E057
:101EC000082005E09549884201D1002000E010205B
:101ED0000122D203E169D511914B924F91426FD10A
:101EE000002806D0022835D004287AD0082869D1E5
:101EF0007AE0FEF77FFE76E0012815D0022815D0A3
:101F0000032815D0042815D0052815D0062815D08B
:101F1000072815D0082815D0092815D00A2815D06B
:101F20000B2814D0012512E0022510E004250EE054
:101F300006250CE008250AE00A2508E00C2506E045
:101F4000102504E0202502E0402500E080252946F8
:101F500010461BE0606A002815D001282AD002280C
:101F60002AD003282AD004282DD005282DD00628D1
:101F70002DD007282DD008282DD009282DD00A28AB
:101F80002DD00B2800D0012529461846FEF7B0F8C1
:101F9000616840004A088018FEF7AAF880B201463E
:101FA0001039B9420ED85F49491C01400007400F63
:101FB00008437FE00225E7E70425E5E70625E3E798
:101FC00016E00EE08AE00825DEE70A25DCE70C25AE
:101FD000DAE71025D8E72025D6E74025D4E7802585
:101FE000D2E7FEF71BFE0246606A00289AD083E71C
:101FF000002806D0022835D0042874D0082879D1CA
:1020000074E0FEF7F7FD70E0012815D0022815D026
:10201000032815D0042815D0052815D0062815D07A
:10202000072815D0082815D0092815D00A2815D05A
:102030000B2814D0012512E0022510E004250EE043
:1020400006250CE008250AE00A2508E00C2506E034
:10205000102504E0202502E0402500E080252946E7
:1020600010461BE0606A002815D0012825D0022800
:1020700025D0032825D0042825D0052825D00628DA
:1020800025D0072825D0082825D0092827D00A28B8
:1020900027D00B2800D0012529461846FEF728F83E
:1020A00061684A088018FEF723F880B201461039AB
:1020B000B9421FD82168C8601DE00225ECE704255D
:1020C000EAE70625E8E70825E6E70A25E4E70C2520
:1020D000E2E71025E0E72025DEE704E00AE04025FE
:1020E000DAE78025D8E7FEF799FD0246606A002806
:1020F000A0D089E701262046012140304185018595
:102100000020E06620673046F8BD0000F369FFCF8D
:10211000FFF4FF110038014040100240004400402D
:102120000024F400EFFF0000FFB581B017460E4613
:1021300004460A9D09E0681C07D0FEF743FB04999A
:10214000401AA8420CD8002D0AD02068C169304638
:1021500088431AD00020B842EDD0002005B0F0BD71
:1021600020680168FF22A1329143016020688168E4
:10217000490849008160202120468030016041608B
:102180000020603420770320E8E70120E3E7000027
:1021900010B5FEF7C7F80248FFF752F910BD00006E
:1021A000D40000200FB410B503A9044B044A0298D0
:1021B00000F048F810BC08BC04B01847212A0008F9
:1021C0004400002030B47446641E2578641CAB4281
:1021D00000D21D46635D5B00E31830BC1847000069
:1021E0008307FF22DB0E9A408907090E99400028D9
:1021F00008DB830809489B001B18186890430843B4
:10220000186070470007000F0838830804489B00D7
:102210001B18D86990430843D861704700E400E078
:1022200000ED00E002E008C8121F08C1002AFAD140
:1022300070477047002001E001C1121F002AFBD146
:1022400070470000FFB591B00F460546002606E036
:1022500025280AD0149A139990476D1C761C28786B
:102260000028F5D1304615B0F0BD002400940121BE
:10227000F34A029400E004436D1C2B780846203B8F
:1022800098401042F7D128782A280ED002212878C9
:102290000246303A092A15D8009A0A235A43303A9E
:1022A00080180C436D1C0090F1E701CF00900028CE
:1022B00005DA0120400304430098404200900220C8
:1022C00004436D1C28782E2815D104200443687817
:1022D0006D1C2A280AD101CF6D1C02900BE00299D7
:1022E0000A225143303940186D1C0290287801466B
:1022F00030390929F3D928786C2810D006DC4C280D
:102300001AD068280ED06A2817D104E0742813D098
:102310007A2812D110E00120400504430CE001218D
:10232000090501E0032109050C436978814203D1C5
:102330000120000524186D1C6D1C287803906E2860
:102340001ED00CDC632831D004DC00288AD0582849
:1023500011D1B2E064287BD069280CD178E07328D1
:102360002DD004DC6F2870D0702804D1A7E0752828
:102370006CD078286BD0149A13999047761C62E041
:102380006002400F022807D003280AD004283868CA
:102390000AD006603F1D56E03868F11706604160BC
:1023A000F8E738680680F5E70670F3E7387869469D
:1023B00008740020487404A80390012003E03868E2
:1023C00003900020C0433F1D61070FD5002101E0AD
:1023D0000199491C029A0191914213DA8142F7DB7B
:1023E000019A0399895C0029F2D10BE0002101E0F8
:1023F0000199491C01918142FADB019A0399895C98
:102400000029F5D101990098139A401A00902146AD
:10241000149B00F03BF901998019461807E00398D6
:1024200003990078491C0391149A139990470198D5
:10243000401E0190401CF2D12146149B139A009833
:1024400000F014F986196D1C09E741E033E034E02F
:102450000A200021049005916002410F022905D055
:1024600001CFC2179446032905D007E0FF1DFF08DE
:10247000FF0003CF06E000B2C2179446042902D140
:1024800040B2C1178C4600226146944506DA0A46DE
:102490000021404291418C462D2102E0210504D5C6
:1024A0002B216A461176012103E0E10701D02021AA
:1024B000F7E7019154E00A200BE0102009E010201A
:1024C000049000210420044308200591029003E0B9
:1024D00008200021059104906002410F022905D0D7
:1024E00001CF00229446032906D006E0FF1DFF0815
:1024F000FF0003CF8C4603E080B2042900D1C0B2B4
:102500000021019121072BD50399702906D0049A47
:102510001021059B4A401A4305D00EE040216A462F
:102520001176012108E06146014306D030216A4658
:1025300011760399517602210191049A0821059B95
:102540004A401A430CD16146014301D1610707D5C6
:1025500030216A461176012101910299491E0291AA
:102560000399582904D037A103910FA90F910DE0C9
:1025700039A1F9E76146059B049AFDF7E1FD039B4C
:102580008C469B5C0F9A521E0F921370614601435A
:10259000F0D10F9807A9081A20300390600704D5DE
:1025A000012000048443029801E001200290039975
:1025B000884201DD401A00E0002041180290019895
:1025C00009180098401A0090E00306D42146149B95
:1025D000139A009800F05AF886190020049008E039
:1025E00006A9085C149A139990470498401C761C1D
:1025F000049001998842F3DBE0030CD52146149B3B
:10260000139A009800F042F8861904E0149A3020DA
:1026100013999047761C0299481E02900029F5DC18
:1026200008E00F980F990078491C0F91149A13999C
:102630009047761C0399481E03900029F1DCFBE6C5
:102640000928010030313233343536373839616288
:10265000636465660000000030313233343536374C
:10266000383941424344454600000000F8B504466D
:1026700000251E461746880404D405E0394620206C
:10268000B0476D1C641EF9D52846F8BDFFB5044659
:10269000002581B01E46C80301D5302700E0202761
:1026A000880404D505E038460399B0476D1C641EC4
:1026B000F9D5284605B0F0BDC10041180648416172
:1026C00001210161002181610269D30701D0D20398
:1026D000FAD501618161704700E000E070B5052422
:1026E0002407012210212046FEF766F87D25ED0023
:1026F0002846FDF7A9FF002210212046FEF75CF8CE
:102700002846FDF7A1FF2846FDF79EFF2846FDF766
:102710009BFF2846FDF798FF2846FDF795FF2846C2
:10272000FDF792FF2846FDF78FFF2846FDF78CFF47
:102730002846FDF789FF2846FDF786FF2846FDF766
:1027400083FF2846FDF780FF012210212046FEF777
:1027500033F82846FDF778FF2846FDF775FF284631
:10276000FDF772FF2846FDF76FFF2846FDF76CFF67
:1027700070BDF0B59C460024059F069E1346254675
:10278000725D0255641C6D1CADB2A4B2082DF7D366
:102790000A780255641CA2B249788154521C91B245
:1027A00003224254491C89B24354491C8AB2002175
:1027B00006E063465B5C8354521C491C92B289B2AA
:1027C000B942F6D3D0B2F0BDF0B57A4C85B02779D6
:1027D0007A48009020460278774D78482B46083892
:1027E00001780833029332332846039300262030C1
:1027F0003B00FFF7E7FC060421547090B21F01274D
:10280000EF8086766E4E009701963A466D49039B9F
:102810000298FFF7AEFFE88800900196012269490F
:10282000039B0298FFF7A5FF0146029800F028FAE3
:102830002770277105B0F0BD022A00D126715F4DC7
:10284000083D0129F6D160A0FFF7ACFC002708E0A5
:10285000E819027C0272394660A0FFF7A3FC7F1CD6
:10286000FFB268880838B842F2DCA87A032814D18D
:10287000E87A012811D10620FFF718F8FF20F5307B
:10288000FDF7E2FE4F48297B01706A7B42705AA037
:10289000FFF788FC267002203BE02E7077E00126CF
:1028A000EE808676464F0197009602224549039BAB
:1028B0000298FFF75EFFE8880090019702224149E5
:1028C000039B0298FFF755FF0146029800F0D8F9E4
:1028D000267003203FE0022A01D102202071374DEB
:1028E000083D0129A6D1002004E029180A7C401CDB
:1028F0000A72C0B2698808398142F6DCA87A0328D6
:10290000CBD1E87A0228C8D141A0FFF74BFC267052
:1029100004202071C1E702212A4AE98013788376D6
:102920005278C276264E0091019605222549039BD6
:102930000298FFF71EFFE8880090019605222149C2
:10294000039B0298FFF715FF0146029800F098F9E3
:1029500001202070052020716CE7022A01D104209B
:102960002071164808380129F6D1002104E04218E8
:10297000137C491C1372C9B24288083A8A42F6DCB9
:10298000817A032902D1C17A052905D00670642114
:102990000098FDF7CAFB4DE71DA0FFF703FC0E20D2
:1029A000FEF784FFFF20F530FDF74EFE2670012074
:1029B00040E7000014000020300300200402002043
:1029C00024000020200000207265763A2066656EA3
:1029D00070656964697A68690000000065746865FB
:1029E000725F73742E52585F70446174615B25642A
:1029F0005D3D253032782E00676574206465762051
:102A0000696420253032782D253032780D0A000097
:102A1000676574206465762069640D0A0000000013
:102A200013B5044B012269460348FEF7CDFE00981A
:102A30001CBD0000FFFF00004800002010B5052469
:102A4000240740212046FDF7ABFE00280CD10A20C8
:102A5000FDF7FAFD40212046FDF7A2FE002803D134
:102A600040212046FDF79CFE10BD0000FDF7B8FE9A
:102A7000FFF724F8FEF772FFFEF764FFFEF7C8FFCA
:102A8000FEF7FAFF002201211C20FDF71BFF1C208E
:102A9000FDF70CFF002211460920FDF713FF092066
:102AA000FDF704FFFDF718FCFDF704FCFFF716FE29
:102AB00007A0FFF777FBFFF787FE0128FBD1084946
:102AC000087008A0FFF76EFB00F012F8FCE70000AA
:102AD000D2BBBCFCC6F4B6AFB1A8BEAF0D0A0000B5
:102AE00015000020C8EBCDF8B3C9B9A60D0A000047
:102AF000F0B585B0FFF7A2FF4F4C01252146083104
:102B000002912746323120374C4E0391002803D0E2
:102B1000F078012840D068E0B078002802D0012881
:102B200063D110E046A0FFF73DFB0A20FEF7BEFE92
:102B30007D20C000FDF788FD7D20C000FDF784FDED
:102B4000B570F57051E0BD76E58041480B460190C7
:102B50001222404900950298FFF70BFEE0883C499D
:102B60000191009012223B49039B0298FFF701FE5E
:102B70000146029800F084F8052080210007FDF747
:102B800014FE35A0FFF70EFB1020FEF78FFEFF208E
:102B9000F530FDF759FD28E0BD76E5802C480B4661
:102BA000019014222B4900950298FFF7E2FDE0887E
:102BB00027490191009014222649039B0298FFF7B0
:102BC000D8FD0146029800F05BF80020B07023A009
:102BD000FFF7E8FA0020F0700B20FEF767FE0520F3
:102BE000012280210007FDF7E7FD7078022818D147
:102BF000BD76E580164F0197009508221549039B85
:102C00000298FFF7B6FDE08800900197082211496D
:102C1000039B0298FFF7ADFD0146029800F030F8E3
:102C2000757013480178012904D10021017011A0A9
:102C3000FFF7B8FA05B0F0BD300300201400002003
:102C4000D2BBBCFCC6F4B6AFB1A8BEAF0D0A000043
:102C50002400002020000020313233007869616FA9
:102C60006A696E676368656E67670D0A0000000039
:102C7000FC0100207265635F78696E78690D0A0057
:102C80000A4610B50146024B0248FEF79DFD10BDF5
:102C9000FFFF0000D4000020000000000000000042
:102CA0000000000000000000000000000000000024
:102CB0000000000000000000010000000200000011
:102CC00003000000040000000600000007000000F0
:102CD00008000000090000000000000000000000E3
:102CE00000000000000000000100000002000000E1
:102CF0000300000004000000182D00080000002060
:102D00004800000024220008602D00084800002030
:102D1000880B0000342200080000000004000000BE
:102D200001000000000000000024F400000000008A
:102D30000000000000000000000000000000000093
:102D40000000000100000000000000000000000082
:102D50000000000000000000000000000000000073
:04000005080000C12E
:00000001FF
